{
  "_format": "hh-sol-artifact-1",
  "contractName": "SubredditBattleRoyale",
  "sourceName": "contracts/SubredditBattleRoyale.sol",
  "abi": [
    {
      "inputs": [],
      "stateMutability": "nonpayable",
      "type": "constructor"
    },
    {
      "anonymous": false,
      "inputs": [
        {
          "indexed": false,
          "internalType": "string",
          "name": "subreddit",
          "type": "string"
        },
        {
          "indexed": false,
          "internalType": "uint256",
          "name": "tokens",
          "type": "uint256"
        },
        {
          "indexed": false,
          "internalType": "uint256",
          "name": "season",
          "type": "uint256"
        }
      ],
      "name": "SeasonWon",
      "type": "event"
    },
    {
      "anonymous": false,
      "inputs": [
        {
          "indexed": true,
          "internalType": "address",
          "name": "buyer",
          "type": "address"
        },
        {
          "indexed": false,
          "internalType": "string",
          "name": "subreddit",
          "type": "string"
        },
        {
          "indexed": false,
          "internalType": "uint256",
          "name": "amount",
          "type": "uint256"
        }
      ],
      "name": "TokensBurned",
      "type": "event"
    },
    {
      "anonymous": false,
      "inputs": [
        {
          "indexed": true,
          "internalType": "address",
          "name": "buyer",
          "type": "address"
        },
        {
          "indexed": false,
          "internalType": "string",
          "name": "subreddit",
          "type": "string"
        },
        {
          "indexed": false,
          "internalType": "uint256",
          "name": "amount",
          "type": "uint256"
        }
      ],
      "name": "TokensPurchased",
      "type": "event"
    },
    {
      "inputs": [],
      "name": "BURN_MULTIPLIER",
      "outputs": [
        {
          "internalType": "uint256",
          "name": "",
          "type": "uint256"
        }
      ],
      "stateMutability": "view",
      "type": "function"
    },
    {
      "inputs": [],
      "name": "INITIAL_SUPPLY",
      "outputs": [
        {
          "internalType": "uint256",
          "name": "",
          "type": "uint256"
        }
      ],
      "stateMutability": "view",
      "type": "function"
    },
    {
      "inputs": [],
      "name": "MAX_SUBREDDIT_LENGTH",
      "outputs": [
        {
          "internalType": "uint256",
          "name": "",
          "type": "uint256"
        }
      ],
      "stateMutability": "view",
      "type": "function"
    },
    {
      "inputs": [],
      "name": "TOKEN_PRICE",
      "outputs": [
        {
          "internalType": "uint256",
          "name": "",
          "type": "uint256"
        }
      ],
      "stateMutability": "view",
      "type": "function"
    },
    {
      "inputs": [
        {
          "internalType": "string",
          "name": "subreddit",
          "type": "string"
        },
        {
          "internalType": "uint256",
          "name": "amount",
          "type": "uint256"
        }
      ],
      "name": "burnTokens",
      "outputs": [],
      "stateMutability": "payable",
      "type": "function"
    },
    {
      "inputs": [],
      "name": "currentSeason",
      "outputs": [
        {
          "internalType": "uint256",
          "name": "",
          "type": "uint256"
        }
      ],
      "stateMutability": "view",
      "type": "function"
    },
    {
      "inputs": [],
      "name": "owner",
      "outputs": [
        {
          "internalType": "address",
          "name": "",
          "type": "address"
        }
      ],
      "stateMutability": "view",
      "type": "function"
    },
    {
      "inputs": [
        {
          "internalType": "string",
          "name": "subreddit",
          "type": "string"
        },
        {
          "internalType": "uint256",
          "name": "amount",
          "type": "uint256"
        }
      ],
      "name": "purchaseTokens",
      "outputs": [],
      "stateMutability": "payable",
      "type": "function"
    },
    {
      "inputs": [
        {
          "internalType": "uint256",
          "name": "newMultiplier",
          "type": "uint256"
        }
      ],
      "name": "setBurnMultiplier",
      "outputs": [],
      "stateMutability": "nonpayable",
      "type": "function"
    },
    {
      "inputs": [
        {
          "internalType": "string",
          "name": "",
          "type": "string"
        }
      ],
      "name": "subredditTokenBalances",
      "outputs": [
        {
          "internalType": "uint256",
          "name": "",
          "type": "uint256"
        }
      ],
      "stateMutability": "view",
      "type": "function"
    },
    {
      "inputs": [],
      "name": "voidTokenCount",
      "outputs": [
        {
          "internalType": "uint256",
          "name": "",
          "type": "uint256"
        }
      ],
      "stateMutability": "view",
      "type": "function"
    },
    {
      "inputs": [],
      "name": "withdraw",
      "outputs": [],
      "stateMutability": "nonpayable",
      "type": "function"
    }
  ],
  "bytecode": "0x60a06040526003600055600160035534801561001a57600080fd5b50620f42406002553360805261002e610033565b610537565b60408051808201909152600b81526a2f722f657468657265756d60a81b6020820152610061906102406103ee565b6040805180820190915260098152682f722f736f6c616e6160b81b602082015261008d9061040c6103ee565b60408051808201909152600a81526917b917b134ba31b7b4b760b11b60208201526100ba906101496103ee565b60408051808201909152600b81526a17b917b237b3b2b1b7b4b760a91b60208201526100e89061012a6103ee565b60408051808201909152600781526617b917b9b434b160c91b60208201526101119060cf6103ee565b60408051808201909152600e81526d2f722f6c69766572706f6f6c666360901b6020820152610142906103aa6103ee565b6040805180820190915260078152662f722f6d63666360c81b602082015261016c906103596103ee565b60408051808201909152600c81526b2f722f6368656c736561666360a01b602082015261019b906103916103ee565b60408051808201909152600881526717b917b237ba309960c11b60208201526101c69061052e6103ee565b6040805180820190915260128152712f722f6c65616775656f666c6567656e647360701b60208201526101fb906104446103ee565b6040805180820190915260128152712f722f676c6f62616c6f6666656e7369766560701b6020820152610230906101836103ee565b60408051808201909152600e81526d2f722f706174686f666578696c6560901b6020820152610261906103e56103ee565b60408051808201909152600a8152690bdc8bd91a58589b1bcd60b21b602082015261028e9061017a6103ee565b6040805180820190915260078152660bdc8bdc9d5cdd60ca1b60208201526102b8906107ed6103ee565b60408051808201909152600981526802f722f6373686172760bc1b60208201526102e49061050a6103ee565b60408051808201909152600981526817b917b83cba3437b760b91b602082015261031090610ef56103ee565b60408051808201909152600681526502f722f6370760d41b6020820152610339906104036103ee565b6040805180820190915260078152662f722f6a61766160c81b6020820152610363906106be6103ee565b60408051808201909152600b81526a2f722f736f6c696469747960a81b602082015261039090601b6103ee565b60408051808201909152600d81526c0bdc8bda985d985cd8dc9a5c1d609a1b60208201526103c090610ffd6103ee565b6040805180820190915260098152682f722f676f6c616e6760b81b60208201526103ec9061033b6103ee565b565b806001836040516103ff919061049e565b9081526020016040518091039020600082825461041c91906104d0565b92505081905550806002600082825461043591906104e9565b909155505060405133907f25748cfd0e365be64ddc23a17740b66c3c84e41a3f32027f9edbddde67cc67209061046e90859085906104fc565b60405180910390a25050565b60005b8381101561049557818101518382015260200161047d565b50506000910152565b600082516104b081846020870161047a565b9190910192915050565b634e487b7160e01b600052601160045260246000fd5b808201808211156104e3576104e36104ba565b92915050565b818103818111156104e3576104e36104ba565b604081526000835180604084015261051b81606085016020880161047a565b602083019390935250601f91909101601f191601606001919050565b60805161118a610567600039600081816101ab0152818161026d0152818161036f0152610b97015261118a6000f3fe6080604052600436106100c75760003560e01c806384cd166411610074578063d2d8cb671161004e578063d2d8cb6714610208578063d5290a2e14610222578063f5bf395f1461023557600080fd5b806384cd1664146101865780638da5cb5b14610199578063bcb39621146101f257600080fd5b80633ccfd60b116100a55780633ccfd60b146101435780634937d9721461015a57806380771ca21461017057600080fd5b8063157c797f146100cc5780632ff2e9dc1461011757806334207cb51461012e575b600080fd5b3480156100d857600080fd5b506101046100e7366004610ed4565b805160208183018101805160018252928201919093012091525481565b6040519081526020015b60405180910390f35b34801561012357600080fd5b50610104620f424081565b34801561013a57600080fd5b50610104601881565b34801561014f57600080fd5b50610158610255565b005b34801561016657600080fd5b5061010460025481565b34801561017c57600080fd5b5061010460005481565b610158610194366004610f11565b6103ba565b3480156101a557600080fd5b506101cd7f000000000000000000000000000000000000000000000000000000000000000081565b60405173ffffffffffffffffffffffffffffffffffffffff909116815260200161010e565b3480156101fe57600080fd5b5061010460035481565b34801561021457600080fd5b50610104655af3107a400081565b610158610230366004610f11565b61079d565b34801561024157600080fd5b50610158610250366004610f56565b610b7f565b3373ffffffffffffffffffffffffffffffffffffffff7f000000000000000000000000000000000000000000000000000000000000000016146103055760405162461bcd60e51b815260206004820152602560248201527f4f6e6c7920746865206f776e65722063616e2063616c6c20746869732066756e60448201527f6374696f6e00000000000000000000000000000000000000000000000000000060648201526084015b60405180910390fd5b600047116103555760405162461bcd60e51b815260206004820152601e60248201527f4e6f20457468657220617661696c61626c6520746f207769746864726177000060448201526064016102fc565b60405173ffffffffffffffffffffffffffffffffffffffff7f000000000000000000000000000000000000000000000000000000000000000016904780156108fc02916000818181858888f193505050501580156103b7573d6000803e3d6000fd5b50565b8160008190506018815111156104125760405162461bcd60e51b815260206004820152601760248201527f537562726564646974206e616d6520746f6f206c6f6e6700000000000000000060448201526064016102fc565b60038151116104635760405162461bcd60e51b815260206004820152601860248201527f537562726564646974206e616d6520746f6f2073686f7274000000000000000060448201526064016102fc565b8060008151811061047657610476610f6f565b6020910101517fff00000000000000000000000000000000000000000000000000000000000000167f2f0000000000000000000000000000000000000000000000000000000000000014806105245750806001815181106104d9576104d9610f6f565b6020910101517fff00000000000000000000000000000000000000000000000000000000000000167f7200000000000000000000000000000000000000000000000000000000000000145b8061058857508060028151811061053d5761053d610f6f565b6020910101517fff00000000000000000000000000000000000000000000000000000000000000167f2f00000000000000000000000000000000000000000000000000000000000000145b6105d45760405162461bcd60e51b815260206004820152601f60248201527f537562726564646974206d757374207374617274207769746820272f722f270060448201526064016102fc565b6105dd82610d1c565b1561062a5760405162461bcd60e51b815260206004820152601b60248201527f537562726564646974206d757374206265206c6f77657263617365000000000060448201526064016102fc565b61063a655af3107a400084610fcd565b34146106885760405162461bcd60e51b815260206004820152601460248201527f496e636f72726563742045746865722073656e7400000000000000000000000060448201526064016102fc565b82600185604051610699919061100e565b908152602001604051809103902060008282546106b6919061102a565b9250508190555082600260008282546106cf919061103d565b909155505060405133907f25748cfd0e365be64ddc23a17740b66c3c84e41a3f32027f9edbddde67cc672090610708908790879061109a565b60405180910390a2600254600185604051610723919061100e565b9081526020016040518091039020541115610797577fe3bce398a9aac96cd5fa58a84a64e78778a933da88e263b0d46af68281242d578460018660405161076a919061100e565b9081526040519081900360200181205460035461078793926110bc565b60405180910390a1610797610d8f565b50505050565b8160008190506018815111156107f55760405162461bcd60e51b815260206004820152601760248201527f537562726564646974206e616d6520746f6f206c6f6e6700000000000000000060448201526064016102fc565b60038151116108465760405162461bcd60e51b815260206004820152601860248201527f537562726564646974206e616d6520746f6f2073686f7274000000000000000060448201526064016102fc565b8060008151811061085957610859610f6f565b6020910101517fff00000000000000000000000000000000000000000000000000000000000000167f2f0000000000000000000000000000000000000000000000000000000000000014806109075750806001815181106108bc576108bc610f6f565b6020910101517fff00000000000000000000000000000000000000000000000000000000000000167f7200000000000000000000000000000000000000000000000000000000000000145b8061096b57508060028151811061092057610920610f6f565b6020910101517fff00000000000000000000000000000000000000000000000000000000000000167f2f00000000000000000000000000000000000000000000000000000000000000145b6109b75760405162461bcd60e51b815260206004820152601f60248201527f537562726564646974206d757374207374617274207769746820272f722f270060448201526064016102fc565b6109c082610d1c565b15610a0d5760405162461bcd60e51b815260206004820152601b60248201527f537562726564646974206d757374206265206c6f77657263617365000000000060448201526064016102fc565b610a1d655af3107a400084610fcd565b3414610a6b5760405162461bcd60e51b815260206004820152601460248201527f496e636f72726563742045746865722073656e7400000000000000000000000060448201526064016102fc565b600054610a789084610fcd565b600185604051610a88919061100e565b9081526020016040518091039020541015610ae55760405162461bcd60e51b815260206004820152601960248201527f4e6f7420656e6f75676820746f6b656e7320746f206275726e0000000000000060448201526064016102fc565b600054610af29084610fcd565b600185604051610b02919061100e565b90815260200160405180910390206000828254610b1f919061103d565b925050819055508260026000828254610b38919061103d565b909155505060405133907f42553426c7163a6f0d19f7bd35b9c58878be4bb3585577b73b46bbf4a90b93f690610b71908790879061109a565b60405180910390a250505050565b3373ffffffffffffffffffffffffffffffffffffffff7f00000000000000000000000000000000000000000000000000000000000000001614610c2a5760405162461bcd60e51b815260206004820152602560248201527f4f6e6c7920746865206f776e65722063616e2063616c6c20746869732066756e60448201527f6374696f6e00000000000000000000000000000000000000000000000000000060648201526084016102fc565b60008111610ca05760405162461bcd60e51b815260206004820152602160248201527f4d756c7469706c696572206d7573742062652067726561746572207468616e2060448201527f300000000000000000000000000000000000000000000000000000000000000060648201526084016102fc565b6064811115610d175760405162461bcd60e51b815260206004820152602d60248201527f4d756c7469706c696572206d757374206265206c657373207468616e20206f7260448201527f20657175616c20746f2031306f0000000000000000000000000000000000000060648201526084016102fc565b600055565b600081815b8151811015610d85576041828281518110610d3e57610d3e610f6f565b016020015160f81c10801590610d6e5750605a828281518110610d6357610d63610f6f565b016020015160f81c11155b15610d7d575060019392505050565b600101610d21565b5060009392505050565b60038054906000610d9f836110e1565b9091555050600354610db490620f4240611119565b610dc190620f424061102a565b60026000828254610dd2919061102a565b9091555050565b7f4e487b7100000000000000000000000000000000000000000000000000000000600052604160045260246000fd5b600082601f830112610e1957600080fd5b813567ffffffffffffffff811115610e3357610e33610dd9565b6040517fffffffffffffffffffffffffffffffffffffffffffffffffffffffffffffffe0603f7fffffffffffffffffffffffffffffffffffffffffffffffffffffffffffffffe0601f8501160116810181811067ffffffffffffffff82111715610e9f57610e9f610dd9565b604052818152838201602001851015610eb757600080fd5b816020850160208301376000918101602001919091529392505050565b600060208284031215610ee657600080fd5b813567ffffffffffffffff811115610efd57600080fd5b610f0984828501610e08565b949350505050565b60008060408385031215610f2457600080fd5b823567ffffffffffffffff811115610f3b57600080fd5b610f4785828601610e08565b95602094909401359450505050565b600060208284031215610f6857600080fd5b5035919050565b7f4e487b7100000000000000000000000000000000000000000000000000000000600052603260045260246000fd5b7f4e487b7100000000000000000000000000000000000000000000000000000000600052601160045260246000fd5b8082028115828204841417610fe457610fe4610f9e565b92915050565b60005b83811015611005578181015183820152602001610fed565b50506000910152565b60008251611020818460208701610fea565b9190910192915050565b80820180821115610fe457610fe4610f9e565b81810381811115610fe457610fe4610f9e565b60008151808452611068816020860160208601610fea565b601f017fffffffffffffffffffffffffffffffffffffffffffffffffffffffffffffffe0169290920160200192915050565b6040815260006110ad6040830185611050565b90508260208301529392505050565b6060815260006110cf6060830186611050565b60208301949094525060400152919050565b60007fffffffffffffffffffffffffffffffffffffffffffffffffffffffffffffffff820361111257611112610f9e565b5060010190565b60008261114f577f4e487b7100000000000000000000000000000000000000000000000000000000600052601260045260246000fd5b50049056fea2646970667358221220885fb3555952ea4023fdb013dd5297c0ec858ead938757b2cde01461eb35de1f64736f6c634300081c0033",
  "linkReferences": {},
  "deployedLinkReferences": {}
}