{
  "contracts/SubredditBattleRoyale.sol": {
    "SubredditBattleRoyale": {
      "abi": [
        {
          "inputs": [],
          "stateMutability": "nonpayable",
          "type": "constructor"
        },
        {
          "anonymous": false,
          "inputs": [
            {
              "indexed": false,
              "internalType": "string",
              "name": "subreddit",
              "type": "string"
            },
            {
              "indexed": false,
              "internalType": "uint256",
              "name": "tokens",
              "type": "uint256"
            },
            {
              "indexed": false,
              "internalType": "uint256",
              "name": "season",
              "type": "uint256"
            }
          ],
          "name": "SeasonWon",
          "type": "event"
        },
        {
          "anonymous": false,
          "inputs": [
            {
              "indexed": true,
              "internalType": "address",
              "name": "buyer",
              "type": "address"
            },
            {
              "indexed": false,
              "internalType": "string",
              "name": "subreddit",
              "type": "string"
            },
            {
              "indexed": false,
              "internalType": "uint256",
              "name": "amount",
              "type": "uint256"
            }
          ],
          "name": "TokensBurned",
          "type": "event"
        },
        {
          "anonymous": false,
          "inputs": [
            {
              "indexed": true,
              "internalType": "address",
              "name": "buyer",
              "type": "address"
            },
            {
              "indexed": false,
              "internalType": "string",
              "name": "subreddit",
              "type": "string"
            },
            {
              "indexed": false,
              "internalType": "uint256",
              "name": "amount",
              "type": "uint256"
            }
          ],
          "name": "TokensPurchased",
          "type": "event"
        },
        {
          "inputs": [],
          "name": "BURN_MULTIPLIER",
          "outputs": [
            {
              "internalType": "uint256",
              "name": "",
              "type": "uint256"
            }
          ],
          "stateMutability": "view",
          "type": "function"
        },
        {
          "inputs": [],
          "name": "INITIAL_SUPPLY",
          "outputs": [
            {
              "internalType": "uint256",
              "name": "",
              "type": "uint256"
            }
          ],
          "stateMutability": "view",
          "type": "function"
        },
        {
          "inputs": [],
          "name": "MAX_SUBREDDIT_LENGTH",
          "outputs": [
            {
              "internalType": "uint256",
              "name": "",
              "type": "uint256"
            }
          ],
          "stateMutability": "view",
          "type": "function"
        },
        {
          "inputs": [],
          "name": "TOKEN_PRICE",
          "outputs": [
            {
              "internalType": "uint256",
              "name": "",
              "type": "uint256"
            }
          ],
          "stateMutability": "view",
          "type": "function"
        },
        {
          "inputs": [
            {
              "internalType": "string",
              "name": "subreddit",
              "type": "string"
            },
            {
              "internalType": "uint256",
              "name": "amount",
              "type": "uint256"
            }
          ],
          "name": "burnTokens",
          "outputs": [],
          "stateMutability": "payable",
          "type": "function"
        },
        {
          "inputs": [],
          "name": "currentSeason",
          "outputs": [
            {
              "internalType": "uint256",
              "name": "",
              "type": "uint256"
            }
          ],
          "stateMutability": "view",
          "type": "function"
        },
        {
          "inputs": [],
          "name": "owner",
          "outputs": [
            {
              "internalType": "address",
              "name": "",
              "type": "address"
            }
          ],
          "stateMutability": "view",
          "type": "function"
        },
        {
          "inputs": [
            {
              "internalType": "string",
              "name": "subreddit",
              "type": "string"
            },
            {
              "internalType": "uint256",
              "name": "amount",
              "type": "uint256"
            }
          ],
          "name": "purchaseTokens",
          "outputs": [],
          "stateMutability": "payable",
          "type": "function"
        },
        {
          "inputs": [
            {
              "internalType": "uint256",
              "name": "newMultiplier",
              "type": "uint256"
            }
          ],
          "name": "setBurnMultiplier",
          "outputs": [],
          "stateMutability": "nonpayable",
          "type": "function"
        },
        {
          "inputs": [
            {
              "internalType": "string",
              "name": "",
              "type": "string"
            }
          ],
          "name": "subredditTokenBalances",
          "outputs": [
            {
              "internalType": "uint256",
              "name": "",
              "type": "uint256"
            }
          ],
          "stateMutability": "view",
          "type": "function"
        },
        {
          "inputs": [],
          "name": "voidTokenCount",
          "outputs": [
            {
              "internalType": "uint256",
              "name": "",
              "type": "uint256"
            }
          ],
          "stateMutability": "view",
          "type": "function"
        },
        {
          "inputs": [],
          "name": "withdraw",
          "outputs": [],
          "stateMutability": "nonpayable",
          "type": "function"
        }
      ],
      "evm": {
        "bytecode": {
          "linkReferences": {},
          "object": "60a06040526003600055600160035534801561001a57600080fd5b50620f42406002553360805261002e610033565b610537565b60408051808201909152600b81526a2f722f657468657265756d60a81b6020820152610061906102406103ee565b6040805180820190915260098152682f722f736f6c616e6160b81b602082015261008d9061040c6103ee565b60408051808201909152600a81526917b917b134ba31b7b4b760b11b60208201526100ba906101496103ee565b60408051808201909152600b81526a17b917b237b3b2b1b7b4b760a91b60208201526100e89061012a6103ee565b60408051808201909152600781526617b917b9b434b160c91b60208201526101119060cf6103ee565b60408051808201909152600e81526d2f722f6c69766572706f6f6c666360901b6020820152610142906103aa6103ee565b6040805180820190915260078152662f722f6d63666360c81b602082015261016c906103596103ee565b60408051808201909152600c81526b2f722f6368656c736561666360a01b602082015261019b906103916103ee565b60408051808201909152600881526717b917b237ba309960c11b60208201526101c69061052e6103ee565b6040805180820190915260128152712f722f6c65616775656f666c6567656e647360701b60208201526101fb906104446103ee565b6040805180820190915260128152712f722f676c6f62616c6f6666656e7369766560701b6020820152610230906101836103ee565b60408051808201909152600e81526d2f722f706174686f666578696c6560901b6020820152610261906103e56103ee565b60408051808201909152600a8152690bdc8bd91a58589b1bcd60b21b602082015261028e9061017a6103ee565b6040805180820190915260078152660bdc8bdc9d5cdd60ca1b60208201526102b8906107ed6103ee565b60408051808201909152600981526802f722f6373686172760bc1b60208201526102e49061050a6103ee565b60408051808201909152600981526817b917b83cba3437b760b91b602082015261031090610ef56103ee565b60408051808201909152600681526502f722f6370760d41b6020820152610339906104036103ee565b6040805180820190915260078152662f722f6a61766160c81b6020820152610363906106be6103ee565b60408051808201909152600b81526a2f722f736f6c696469747960a81b602082015261039090601b6103ee565b60408051808201909152600d81526c0bdc8bda985d985cd8dc9a5c1d609a1b60208201526103c090610ffd6103ee565b6040805180820190915260098152682f722f676f6c616e6760b81b60208201526103ec9061033b6103ee565b565b806001836040516103ff919061049e565b9081526020016040518091039020600082825461041c91906104d0565b92505081905550806002600082825461043591906104e9565b909155505060405133907f25748cfd0e365be64ddc23a17740b66c3c84e41a3f32027f9edbddde67cc67209061046e90859085906104fc565b60405180910390a25050565b60005b8381101561049557818101518382015260200161047d565b50506000910152565b600082516104b081846020870161047a565b9190910192915050565b634e487b7160e01b600052601160045260246000fd5b808201808211156104e3576104e36104ba565b92915050565b818103818111156104e3576104e36104ba565b604081526000835180604084015261051b81606085016020880161047a565b602083019390935250601f91909101601f191601606001919050565b608051610e696105676000396000818161018b01528181610233015281816102d601526109910152610e696000f3fe6080604052600436106100a75760003560e01c806384cd16641161006457806384cd1664146101665780638da5cb5b14610179578063bcb39621146101c5578063d2d8cb67146101db578063d5290a2e146101f5578063f5bf395f1461020857600080fd5b8063157c797f146100ac5780632ff2e9dc146100f757806334207cb51461010e5780633ccfd60b146101235780634937d9721461013a57806380771ca214610150575b600080fd5b3480156100b857600080fd5b506100e46100c7366004610bf6565b805160208183018101805160018252928201919093012091525481565b6040519081526020015b60405180910390f35b34801561010357600080fd5b506100e4620f424081565b34801561011a57600080fd5b506100e4601881565b34801561012f57600080fd5b50610138610228565b005b34801561014657600080fd5b506100e460025481565b34801561015c57600080fd5b506100e460005481565b610138610174366004610c33565b610321565b34801561018557600080fd5b506101ad7f000000000000000000000000000000000000000000000000000000000000000081565b6040516001600160a01b0390911681526020016100ee565b3480156101d157600080fd5b506100e460035481565b3480156101e757600080fd5b506100e4655af3107a400081565b610138610203366004610c33565b610654565b34801561021457600080fd5b50610138610223366004610c78565b610986565b336001600160a01b037f000000000000000000000000000000000000000000000000000000000000000016146102795760405162461bcd60e51b815260040161027090610c91565b60405180910390fd5b600047116102c95760405162461bcd60e51b815260206004820152601e60248201527f4e6f20457468657220617661696c61626c6520746f20776974686472617700006044820152606401610270565b6040516001600160a01b037f000000000000000000000000000000000000000000000000000000000000000016904780156108fc02916000818181858888f1935050505015801561031e573d6000803e3d6000fd5b50565b8160008190506018815111156103735760405162461bcd60e51b8152602060048201526017602482015276537562726564646974206e616d6520746f6f206c6f6e6760481b6044820152606401610270565b60038151116103bf5760405162461bcd60e51b815260206004820152601860248201527714dd589c9959191a5d081b985b59481d1bdbc81cda1bdc9d60421b6044820152606401610270565b806000815181106103d2576103d2610cd6565b6020910101516001600160f81b031916602f60f81b148061041857508060018151811061040157610401610cd6565b6020910101516001600160f81b031916603960f91b145b8061044857508060028151811061043157610431610cd6565b6020910101516001600160f81b031916602f60f81b145b6104945760405162461bcd60e51b815260206004820152601f60248201527f537562726564646974206d757374207374617274207769746820272f722f27006044820152606401610270565b61049d82610a94565b156104ea5760405162461bcd60e51b815260206004820152601b60248201527f537562726564646974206d757374206265206c6f7765726361736500000000006044820152606401610270565b6104fa655af3107a400084610d02565b341461053f5760405162461bcd60e51b8152602060048201526014602482015273125b98dbdc9c9958dd08115d1a195c881cd95b9d60621b6044820152606401610270565b826001856040516105509190610d43565b9081526020016040518091039020600082825461056d9190610d5f565b9250508190555082600260008282546105869190610d72565b909155505060405133907f25748cfd0e365be64ddc23a17740b66c3c84e41a3f32027f9edbddde67cc6720906105bf9087908790610db1565b60405180910390a26002546001856040516105da9190610d43565b908152602001604051809103902054111561064e577fe3bce398a9aac96cd5fa58a84a64e78778a933da88e263b0d46af68281242d57846001866040516106219190610d43565b9081526040519081900360200181205460035461063e9392610dd3565b60405180910390a161064e610b07565b50505050565b8160008190506018815111156106a65760405162461bcd60e51b8152602060048201526017602482015276537562726564646974206e616d6520746f6f206c6f6e6760481b6044820152606401610270565b60038151116106f25760405162461bcd60e51b815260206004820152601860248201527714dd589c9959191a5d081b985b59481d1bdbc81cda1bdc9d60421b6044820152606401610270565b8060008151811061070557610705610cd6565b6020910101516001600160f81b031916602f60f81b148061074b57508060018151811061073457610734610cd6565b6020910101516001600160f81b031916603960f91b145b8061077b57508060028151811061076457610764610cd6565b6020910101516001600160f81b031916602f60f81b145b6107c75760405162461bcd60e51b815260206004820152601f60248201527f537562726564646974206d757374207374617274207769746820272f722f27006044820152606401610270565b6107d082610a94565b1561081d5760405162461bcd60e51b815260206004820152601b60248201527f537562726564646974206d757374206265206c6f7765726361736500000000006044820152606401610270565b61082d655af3107a400084610d02565b34146108725760405162461bcd60e51b8152602060048201526014602482015273125b98dbdc9c9958dd08115d1a195c881cd95b9d60621b6044820152606401610270565b60005461087f9084610d02565b60018560405161088f9190610d43565b90815260200160405180910390205410156108ec5760405162461bcd60e51b815260206004820152601960248201527f4e6f7420656e6f75676820746f6b656e7320746f206275726e000000000000006044820152606401610270565b6000546108f99084610d02565b6001856040516109099190610d43565b908152602001604051809103902060008282546109269190610d72565b92505081905550826002600082825461093f9190610d72565b909155505060405133907f42553426c7163a6f0d19f7bd35b9c58878be4bb3585577b73b46bbf4a90b93f6906109789087908790610db1565b60405180910390a250505050565b336001600160a01b037f000000000000000000000000000000000000000000000000000000000000000016146109ce5760405162461bcd60e51b815260040161027090610c91565b60008111610a285760405162461bcd60e51b815260206004820152602160248201527f4d756c7469706c696572206d7573742062652067726561746572207468616e206044820152600360fc1b6064820152608401610270565b6064811115610a8f5760405162461bcd60e51b815260206004820152602d60248201527f4d756c7469706c696572206d757374206265206c657373207468616e20206f7260448201526c20657175616c20746f2031306f60981b6064820152608401610270565b600055565b600081815b8151811015610afd576041828281518110610ab657610ab6610cd6565b016020015160f81c10801590610ae65750605a828281518110610adb57610adb610cd6565b016020015160f81c11155b15610af5575060019392505050565b600101610a99565b5060009392505050565b60038054906000610b1783610df8565b9091555050600354610b2c90620f4240610e11565b610b3990620f4240610d5f565b60026000828254610b4a9190610d5f565b9091555050565b634e487b7160e01b600052604160045260246000fd5b600082601f830112610b7857600080fd5b813567ffffffffffffffff811115610b9257610b92610b51565b604051601f8201601f19908116603f0116810167ffffffffffffffff81118282101715610bc157610bc1610b51565b604052818152838201602001851015610bd957600080fd5b816020850160208301376000918101602001919091529392505050565b600060208284031215610c0857600080fd5b813567ffffffffffffffff811115610c1f57600080fd5b610c2b84828501610b67565b949350505050565b60008060408385031215610c4657600080fd5b823567ffffffffffffffff811115610c5d57600080fd5b610c6985828601610b67565b95602094909401359450505050565b600060208284031215610c8a57600080fd5b5035919050565b60208082526025908201527f4f6e6c7920746865206f776e65722063616e2063616c6c20746869732066756e60408201526431ba34b7b760d91b606082015260800190565b634e487b7160e01b600052603260045260246000fd5b634e487b7160e01b600052601160045260246000fd5b8082028115828204841417610d1957610d19610cec565b92915050565b60005b83811015610d3a578181015183820152602001610d22565b50506000910152565b60008251610d55818460208701610d1f565b9190910192915050565b80820180821115610d1957610d19610cec565b81810381811115610d1957610d19610cec565b60008151808452610d9d816020860160208601610d1f565b601f01601f19169290920160200192915050565b604081526000610dc46040830185610d85565b90508260208301529392505050565b606081526000610de66060830186610d85565b60208301949094525060400152919050565b600060018201610e0a57610e0a610cec565b5060010190565b600082610e2e57634e487b7160e01b600052601260045260246000fd5b50049056fea2646970667358221220621affea3679b1ba04f47925e2c325573cebe252e1dba477159bc42281e7a43a64736f6c634300081c0033",
          "opcodes": "PUSH1 0xA0 PUSH1 0x40 MSTORE PUSH1 0x3 PUSH1 0x0 SSTORE PUSH1 0x1 PUSH1 0x3 SSTORE CALLVALUE DUP1 ISZERO PUSH2 0x1A JUMPI PUSH1 0x0 DUP1 REVERT JUMPDEST POP PUSH3 0xF4240 PUSH1 0x2 SSTORE CALLER PUSH1 0x80 MSTORE PUSH2 0x2E PUSH2 0x33 JUMP JUMPDEST PUSH2 0x537 JUMP JUMPDEST PUSH1 0x40 DUP1 MLOAD DUP1 DUP3 ADD SWAP1 SWAP2 MSTORE PUSH1 0xB DUP2 MSTORE PUSH11 0x2F722F657468657265756D PUSH1 0xA8 SHL PUSH1 0x20 DUP3 ADD MSTORE PUSH2 0x61 SWAP1 PUSH2 0x240 PUSH2 0x3EE JUMP JUMPDEST PUSH1 0x40 DUP1 MLOAD DUP1 DUP3 ADD SWAP1 SWAP2 MSTORE PUSH1 0x9 DUP2 MSTORE PUSH9 0x2F722F736F6C616E61 PUSH1 0xB8 SHL PUSH1 0x20 DUP3 ADD MSTORE PUSH2 0x8D SWAP1 PUSH2 0x40C PUSH2 0x3EE JUMP JUMPDEST PUSH1 0x40 DUP1 MLOAD DUP1 DUP3 ADD SWAP1 SWAP2 MSTORE PUSH1 0xA DUP2 MSTORE PUSH10 0x17B917B134BA31B7B4B7 PUSH1 0xB1 SHL PUSH1 0x20 DUP3 ADD MSTORE PUSH2 0xBA SWAP1 PUSH2 0x149 PUSH2 0x3EE JUMP JUMPDEST PUSH1 0x40 DUP1 MLOAD DUP1 DUP3 ADD SWAP1 SWAP2 MSTORE PUSH1 0xB DUP2 MSTORE PUSH11 0x17B917B237B3B2B1B7B4B7 PUSH1 0xA9 SHL PUSH1 0x20 DUP3 ADD MSTORE PUSH2 0xE8 SWAP1 PUSH2 0x12A PUSH2 0x3EE JUMP JUMPDEST PUSH1 0x40 DUP1 MLOAD DUP1 DUP3 ADD SWAP1 SWAP2 MSTORE PUSH1 0x7 DUP2 MSTORE PUSH7 0x17B917B9B434B1 PUSH1 0xC9 SHL PUSH1 0x20 DUP3 ADD MSTORE PUSH2 0x111 SWAP1 PUSH1 0xCF PUSH2 0x3EE JUMP JUMPDEST PUSH1 0x40 DUP1 MLOAD DUP1 DUP3 ADD SWAP1 SWAP2 MSTORE PUSH1 0xE DUP2 MSTORE PUSH14 0x2F722F6C69766572706F6F6C6663 PUSH1 0x90 SHL PUSH1 0x20 DUP3 ADD MSTORE PUSH2 0x142 SWAP1 PUSH2 0x3AA PUSH2 0x3EE JUMP JUMPDEST PUSH1 0x40 DUP1 MLOAD DUP1 DUP3 ADD SWAP1 SWAP2 MSTORE PUSH1 0x7 DUP2 MSTORE PUSH7 0x2F722F6D636663 PUSH1 0xC8 SHL PUSH1 0x20 DUP3 ADD MSTORE PUSH2 0x16C SWAP1 PUSH2 0x359 PUSH2 0x3EE JUMP JUMPDEST PUSH1 0x40 DUP1 MLOAD DUP1 DUP3 ADD SWAP1 SWAP2 MSTORE PUSH1 0xC DUP2 MSTORE PUSH12 0x2F722F6368656C7365616663 PUSH1 0xA0 SHL PUSH1 0x20 DUP3 ADD MSTORE PUSH2 0x19B SWAP1 PUSH2 0x391 PUSH2 0x3EE JUMP JUMPDEST PUSH1 0x40 DUP1 MLOAD DUP1 DUP3 ADD SWAP1 SWAP2 MSTORE PUSH1 0x8 DUP2 MSTORE PUSH8 0x17B917B237BA3099 PUSH1 0xC1 SHL PUSH1 0x20 DUP3 ADD MSTORE PUSH2 0x1C6 SWAP1 PUSH2 0x52E PUSH2 0x3EE JUMP JUMPDEST PUSH1 0x40 DUP1 MLOAD DUP1 DUP3 ADD SWAP1 SWAP2 MSTORE PUSH1 0x12 DUP2 MSTORE PUSH18 0x2F722F6C65616775656F666C6567656E6473 PUSH1 0x70 SHL PUSH1 0x20 DUP3 ADD MSTORE PUSH2 0x1FB SWAP1 PUSH2 0x444 PUSH2 0x3EE JUMP JUMPDEST PUSH1 0x40 DUP1 MLOAD DUP1 DUP3 ADD SWAP1 SWAP2 MSTORE PUSH1 0x12 DUP2 MSTORE PUSH18 0x2F722F676C6F62616C6F6666656E73697665 PUSH1 0x70 SHL PUSH1 0x20 DUP3 ADD MSTORE PUSH2 0x230 SWAP1 PUSH2 0x183 PUSH2 0x3EE JUMP JUMPDEST PUSH1 0x40 DUP1 MLOAD DUP1 DUP3 ADD SWAP1 SWAP2 MSTORE PUSH1 0xE DUP2 MSTORE PUSH14 0x2F722F706174686F666578696C65 PUSH1 0x90 SHL PUSH1 0x20 DUP3 ADD MSTORE PUSH2 0x261 SWAP1 PUSH2 0x3E5 PUSH2 0x3EE JUMP JUMPDEST PUSH1 0x40 DUP1 MLOAD DUP1 DUP3 ADD SWAP1 SWAP2 MSTORE PUSH1 0xA DUP2 MSTORE PUSH10 0xBDC8BD91A58589B1BCD PUSH1 0xB2 SHL PUSH1 0x20 DUP3 ADD MSTORE PUSH2 0x28E SWAP1 PUSH2 0x17A PUSH2 0x3EE JUMP JUMPDEST PUSH1 0x40 DUP1 MLOAD DUP1 DUP3 ADD SWAP1 SWAP2 MSTORE PUSH1 0x7 DUP2 MSTORE PUSH7 0xBDC8BDC9D5CDD PUSH1 0xCA SHL PUSH1 0x20 DUP3 ADD MSTORE PUSH2 0x2B8 SWAP1 PUSH2 0x7ED PUSH2 0x3EE JUMP JUMPDEST PUSH1 0x40 DUP1 MLOAD DUP1 DUP3 ADD SWAP1 SWAP2 MSTORE PUSH1 0x9 DUP2 MSTORE PUSH9 0x2F722F63736861727 PUSH1 0xBC SHL PUSH1 0x20 DUP3 ADD MSTORE PUSH2 0x2E4 SWAP1 PUSH2 0x50A PUSH2 0x3EE JUMP JUMPDEST PUSH1 0x40 DUP1 MLOAD DUP1 DUP3 ADD SWAP1 SWAP2 MSTORE PUSH1 0x9 DUP2 MSTORE PUSH9 0x17B917B83CBA3437B7 PUSH1 0xB9 SHL PUSH1 0x20 DUP3 ADD MSTORE PUSH2 0x310 SWAP1 PUSH2 0xEF5 PUSH2 0x3EE JUMP JUMPDEST PUSH1 0x40 DUP1 MLOAD DUP1 DUP3 ADD SWAP1 SWAP2 MSTORE PUSH1 0x6 DUP2 MSTORE PUSH6 0x2F722F63707 PUSH1 0xD4 SHL PUSH1 0x20 DUP3 ADD MSTORE PUSH2 0x339 SWAP1 PUSH2 0x403 PUSH2 0x3EE JUMP JUMPDEST PUSH1 0x40 DUP1 MLOAD DUP1 DUP3 ADD SWAP1 SWAP2 MSTORE PUSH1 0x7 DUP2 MSTORE PUSH7 0x2F722F6A617661 PUSH1 0xC8 SHL PUSH1 0x20 DUP3 ADD MSTORE PUSH2 0x363 SWAP1 PUSH2 0x6BE PUSH2 0x3EE JUMP JUMPDEST PUSH1 0x40 DUP1 MLOAD DUP1 DUP3 ADD SWAP1 SWAP2 MSTORE PUSH1 0xB DUP2 MSTORE PUSH11 0x2F722F736F6C6964697479 PUSH1 0xA8 SHL PUSH1 0x20 DUP3 ADD MSTORE PUSH2 0x390 SWAP1 PUSH1 0x1B PUSH2 0x3EE JUMP JUMPDEST PUSH1 0x40 DUP1 MLOAD DUP1 DUP3 ADD SWAP1 SWAP2 MSTORE PUSH1 0xD DUP2 MSTORE PUSH13 0xBDC8BDA985D985CD8DC9A5C1D PUSH1 0x9A SHL PUSH1 0x20 DUP3 ADD MSTORE PUSH2 0x3C0 SWAP1 PUSH2 0xFFD PUSH2 0x3EE JUMP JUMPDEST PUSH1 0x40 DUP1 MLOAD DUP1 DUP3 ADD SWAP1 SWAP2 MSTORE PUSH1 0x9 DUP2 MSTORE PUSH9 0x2F722F676F6C616E67 PUSH1 0xB8 SHL PUSH1 0x20 DUP3 ADD MSTORE PUSH2 0x3EC SWAP1 PUSH2 0x33B PUSH2 0x3EE JUMP JUMPDEST JUMP JUMPDEST DUP1 PUSH1 0x1 DUP4 PUSH1 0x40 MLOAD PUSH2 0x3FF SWAP2 SWAP1 PUSH2 0x49E JUMP JUMPDEST SWAP1 DUP2 MSTORE PUSH1 0x20 ADD PUSH1 0x40 MLOAD DUP1 SWAP2 SUB SWAP1 KECCAK256 PUSH1 0x0 DUP3 DUP3 SLOAD PUSH2 0x41C SWAP2 SWAP1 PUSH2 0x4D0 JUMP JUMPDEST SWAP3 POP POP DUP2 SWAP1 SSTORE POP DUP1 PUSH1 0x2 PUSH1 0x0 DUP3 DUP3 SLOAD PUSH2 0x435 SWAP2 SWAP1 PUSH2 0x4E9 JUMP JUMPDEST SWAP1 SWAP2 SSTORE POP POP PUSH1 0x40 MLOAD CALLER SWAP1 PUSH32 0x25748CFD0E365BE64DDC23A17740B66C3C84E41A3F32027F9EDBDDDE67CC6720 SWAP1 PUSH2 0x46E SWAP1 DUP6 SWAP1 DUP6 SWAP1 PUSH2 0x4FC JUMP JUMPDEST PUSH1 0x40 MLOAD DUP1 SWAP2 SUB SWAP1 LOG2 POP POP JUMP JUMPDEST PUSH1 0x0 JUMPDEST DUP4 DUP2 LT ISZERO PUSH2 0x495 JUMPI DUP2 DUP2 ADD MLOAD DUP4 DUP3 ADD MSTORE PUSH1 0x20 ADD PUSH2 0x47D JUMP JUMPDEST POP POP PUSH1 0x0 SWAP2 ADD MSTORE JUMP JUMPDEST PUSH1 0x0 DUP3 MLOAD PUSH2 0x4B0 DUP2 DUP5 PUSH1 0x20 DUP8 ADD PUSH2 0x47A JUMP JUMPDEST SWAP2 SWAP1 SWAP2 ADD SWAP3 SWAP2 POP POP JUMP JUMPDEST PUSH4 0x4E487B71 PUSH1 0xE0 SHL PUSH1 0x0 MSTORE PUSH1 0x11 PUSH1 0x4 MSTORE PUSH1 0x24 PUSH1 0x0 REVERT JUMPDEST DUP1 DUP3 ADD DUP1 DUP3 GT ISZERO PUSH2 0x4E3 JUMPI PUSH2 0x4E3 PUSH2 0x4BA JUMP JUMPDEST SWAP3 SWAP2 POP POP JUMP JUMPDEST DUP2 DUP2 SUB DUP2 DUP2 GT ISZERO PUSH2 0x4E3 JUMPI PUSH2 0x4E3 PUSH2 0x4BA JUMP JUMPDEST PUSH1 0x40 DUP2 MSTORE PUSH1 0x0 DUP4 MLOAD DUP1 PUSH1 0x40 DUP5 ADD MSTORE PUSH2 0x51B DUP2 PUSH1 0x60 DUP6 ADD PUSH1 0x20 DUP9 ADD PUSH2 0x47A JUMP JUMPDEST PUSH1 0x20 DUP4 ADD SWAP4 SWAP1 SWAP4 MSTORE POP PUSH1 0x1F SWAP2 SWAP1 SWAP2 ADD PUSH1 0x1F NOT AND ADD PUSH1 0x60 ADD SWAP2 SWAP1 POP JUMP JUMPDEST PUSH1 0x80 MLOAD PUSH2 0xE69 PUSH2 0x567 PUSH1 0x0 CODECOPY PUSH1 0x0 DUP2 DUP2 PUSH2 0x18B ADD MSTORE DUP2 DUP2 PUSH2 0x233 ADD MSTORE DUP2 DUP2 PUSH2 0x2D6 ADD MSTORE PUSH2 0x991 ADD MSTORE PUSH2 0xE69 PUSH1 0x0 RETURN INVALID PUSH1 0x80 PUSH1 0x40 MSTORE PUSH1 0x4 CALLDATASIZE LT PUSH2 0xA7 JUMPI PUSH1 0x0 CALLDATALOAD PUSH1 0xE0 SHR DUP1 PUSH4 0x84CD1664 GT PUSH2 0x64 JUMPI DUP1 PUSH4 0x84CD1664 EQ PUSH2 0x166 JUMPI DUP1 PUSH4 0x8DA5CB5B EQ PUSH2 0x179 JUMPI DUP1 PUSH4 0xBCB39621 EQ PUSH2 0x1C5 JUMPI DUP1 PUSH4 0xD2D8CB67 EQ PUSH2 0x1DB JUMPI DUP1 PUSH4 0xD5290A2E EQ PUSH2 0x1F5 JUMPI DUP1 PUSH4 0xF5BF395F EQ PUSH2 0x208 JUMPI PUSH1 0x0 DUP1 REVERT JUMPDEST DUP1 PUSH4 0x157C797F EQ PUSH2 0xAC JUMPI DUP1 PUSH4 0x2FF2E9DC EQ PUSH2 0xF7 JUMPI DUP1 PUSH4 0x34207CB5 EQ PUSH2 0x10E JUMPI DUP1 PUSH4 0x3CCFD60B EQ PUSH2 0x123 JUMPI DUP1 PUSH4 0x4937D972 EQ PUSH2 0x13A JUMPI DUP1 PUSH4 0x80771CA2 EQ PUSH2 0x150 JUMPI JUMPDEST PUSH1 0x0 DUP1 REVERT JUMPDEST CALLVALUE DUP1 ISZERO PUSH2 0xB8 JUMPI PUSH1 0x0 DUP1 REVERT JUMPDEST POP PUSH2 0xE4 PUSH2 0xC7 CALLDATASIZE PUSH1 0x4 PUSH2 0xBF6 JUMP JUMPDEST DUP1 MLOAD PUSH1 0x20 DUP2 DUP4 ADD DUP2 ADD DUP1 MLOAD PUSH1 0x1 DUP3 MSTORE SWAP3 DUP3 ADD SWAP2 SWAP1 SWAP4 ADD KECCAK256 SWAP2 MSTORE SLOAD DUP2 JUMP JUMPDEST PUSH1 0x40 MLOAD SWAP1 DUP2 MSTORE PUSH1 0x20 ADD JUMPDEST PUSH1 0x40 MLOAD DUP1 SWAP2 SUB SWAP1 RETURN JUMPDEST CALLVALUE DUP1 ISZERO PUSH2 0x103 JUMPI PUSH1 0x0 DUP1 REVERT JUMPDEST POP PUSH2 0xE4 PUSH3 0xF4240 DUP2 JUMP JUMPDEST CALLVALUE DUP1 ISZERO PUSH2 0x11A JUMPI PUSH1 0x0 DUP1 REVERT JUMPDEST POP PUSH2 0xE4 PUSH1 0x18 DUP2 JUMP JUMPDEST CALLVALUE DUP1 ISZERO PUSH2 0x12F JUMPI PUSH1 0x0 DUP1 REVERT JUMPDEST POP PUSH2 0x138 PUSH2 0x228 JUMP JUMPDEST STOP JUMPDEST CALLVALUE DUP1 ISZERO PUSH2 0x146 JUMPI PUSH1 0x0 DUP1 REVERT JUMPDEST POP PUSH2 0xE4 PUSH1 0x2 SLOAD DUP2 JUMP JUMPDEST CALLVALUE DUP1 ISZERO PUSH2 0x15C JUMPI PUSH1 0x0 DUP1 REVERT JUMPDEST POP PUSH2 0xE4 PUSH1 0x0 SLOAD DUP2 JUMP JUMPDEST PUSH2 0x138 PUSH2 0x174 CALLDATASIZE PUSH1 0x4 PUSH2 0xC33 JUMP JUMPDEST PUSH2 0x321 JUMP JUMPDEST CALLVALUE DUP1 ISZERO PUSH2 0x185 JUMPI PUSH1 0x0 DUP1 REVERT JUMPDEST POP PUSH2 0x1AD PUSH32 0x0 DUP2 JUMP JUMPDEST PUSH1 0x40 MLOAD PUSH1 0x1 PUSH1 0x1 PUSH1 0xA0 SHL SUB SWAP1 SWAP2 AND DUP2 MSTORE PUSH1 0x20 ADD PUSH2 0xEE JUMP JUMPDEST CALLVALUE DUP1 ISZERO PUSH2 0x1D1 JUMPI PUSH1 0x0 DUP1 REVERT JUMPDEST POP PUSH2 0xE4 PUSH1 0x3 SLOAD DUP2 JUMP JUMPDEST CALLVALUE DUP1 ISZERO PUSH2 0x1E7 JUMPI PUSH1 0x0 DUP1 REVERT JUMPDEST POP PUSH2 0xE4 PUSH6 0x5AF3107A4000 DUP2 JUMP JUMPDEST PUSH2 0x138 PUSH2 0x203 CALLDATASIZE PUSH1 0x4 PUSH2 0xC33 JUMP JUMPDEST PUSH2 0x654 JUMP JUMPDEST CALLVALUE DUP1 ISZERO PUSH2 0x214 JUMPI PUSH1 0x0 DUP1 REVERT JUMPDEST POP PUSH2 0x138 PUSH2 0x223 CALLDATASIZE PUSH1 0x4 PUSH2 0xC78 JUMP JUMPDEST PUSH2 0x986 JUMP JUMPDEST CALLER PUSH1 0x1 PUSH1 0x1 PUSH1 0xA0 SHL SUB PUSH32 0x0 AND EQ PUSH2 0x279 JUMPI PUSH1 0x40 MLOAD PUSH3 0x461BCD PUSH1 0xE5 SHL DUP2 MSTORE PUSH1 0x4 ADD PUSH2 0x270 SWAP1 PUSH2 0xC91 JUMP JUMPDEST PUSH1 0x40 MLOAD DUP1 SWAP2 SUB SWAP1 REVERT JUMPDEST PUSH1 0x0 SELFBALANCE GT PUSH2 0x2C9 JUMPI PUSH1 0x40 MLOAD PUSH3 0x461BCD PUSH1 0xE5 SHL DUP2 MSTORE PUSH1 0x20 PUSH1 0x4 DUP3 ADD MSTORE PUSH1 0x1E PUSH1 0x24 DUP3 ADD MSTORE PUSH32 0x4E6F20457468657220617661696C61626C6520746F2077697468647261770000 PUSH1 0x44 DUP3 ADD MSTORE PUSH1 0x64 ADD PUSH2 0x270 JUMP JUMPDEST PUSH1 0x40 MLOAD PUSH1 0x1 PUSH1 0x1 PUSH1 0xA0 SHL SUB PUSH32 0x0 AND SWAP1 SELFBALANCE DUP1 ISZERO PUSH2 0x8FC MUL SWAP2 PUSH1 0x0 DUP2 DUP2 DUP2 DUP6 DUP9 DUP9 CALL SWAP4 POP POP POP POP ISZERO DUP1 ISZERO PUSH2 0x31E JUMPI RETURNDATASIZE PUSH1 0x0 DUP1 RETURNDATACOPY RETURNDATASIZE PUSH1 0x0 REVERT JUMPDEST POP JUMP JUMPDEST DUP2 PUSH1 0x0 DUP2 SWAP1 POP PUSH1 0x18 DUP2 MLOAD GT ISZERO PUSH2 0x373 JUMPI PUSH1 0x40 MLOAD PUSH3 0x461BCD PUSH1 0xE5 SHL DUP2 MSTORE PUSH1 0x20 PUSH1 0x4 DUP3 ADD MSTORE PUSH1 0x17 PUSH1 0x24 DUP3 ADD MSTORE PUSH23 0x537562726564646974206E616D6520746F6F206C6F6E67 PUSH1 0x48 SHL PUSH1 0x44 DUP3 ADD MSTORE PUSH1 0x64 ADD PUSH2 0x270 JUMP JUMPDEST PUSH1 0x3 DUP2 MLOAD GT PUSH2 0x3BF JUMPI PUSH1 0x40 MLOAD PUSH3 0x461BCD PUSH1 0xE5 SHL DUP2 MSTORE PUSH1 0x20 PUSH1 0x4 DUP3 ADD MSTORE PUSH1 0x18 PUSH1 0x24 DUP3 ADD MSTORE PUSH24 0x14DD589C9959191A5D081B985B59481D1BDBC81CDA1BDC9D PUSH1 0x42 SHL PUSH1 0x44 DUP3 ADD MSTORE PUSH1 0x64 ADD PUSH2 0x270 JUMP JUMPDEST DUP1 PUSH1 0x0 DUP2 MLOAD DUP2 LT PUSH2 0x3D2 JUMPI PUSH2 0x3D2 PUSH2 0xCD6 JUMP JUMPDEST PUSH1 0x20 SWAP2 ADD ADD MLOAD PUSH1 0x1 PUSH1 0x1 PUSH1 0xF8 SHL SUB NOT AND PUSH1 0x2F PUSH1 0xF8 SHL EQ DUP1 PUSH2 0x418 JUMPI POP DUP1 PUSH1 0x1 DUP2 MLOAD DUP2 LT PUSH2 0x401 JUMPI PUSH2 0x401 PUSH2 0xCD6 JUMP JUMPDEST PUSH1 0x20 SWAP2 ADD ADD MLOAD PUSH1 0x1 PUSH1 0x1 PUSH1 0xF8 SHL SUB NOT AND PUSH1 0x39 PUSH1 0xF9 SHL EQ JUMPDEST DUP1 PUSH2 0x448 JUMPI POP DUP1 PUSH1 0x2 DUP2 MLOAD DUP2 LT PUSH2 0x431 JUMPI PUSH2 0x431 PUSH2 0xCD6 JUMP JUMPDEST PUSH1 0x20 SWAP2 ADD ADD MLOAD PUSH1 0x1 PUSH1 0x1 PUSH1 0xF8 SHL SUB NOT AND PUSH1 0x2F PUSH1 0xF8 SHL EQ JUMPDEST PUSH2 0x494 JUMPI PUSH1 0x40 MLOAD PUSH3 0x461BCD PUSH1 0xE5 SHL DUP2 MSTORE PUSH1 0x20 PUSH1 0x4 DUP3 ADD MSTORE PUSH1 0x1F PUSH1 0x24 DUP3 ADD MSTORE PUSH32 0x537562726564646974206D757374207374617274207769746820272F722F2700 PUSH1 0x44 DUP3 ADD MSTORE PUSH1 0x64 ADD PUSH2 0x270 JUMP JUMPDEST PUSH2 0x49D DUP3 PUSH2 0xA94 JUMP JUMPDEST ISZERO PUSH2 0x4EA JUMPI PUSH1 0x40 MLOAD PUSH3 0x461BCD PUSH1 0xE5 SHL DUP2 MSTORE PUSH1 0x20 PUSH1 0x4 DUP3 ADD MSTORE PUSH1 0x1B PUSH1 0x24 DUP3 ADD MSTORE PUSH32 0x537562726564646974206D757374206265206C6F776572636173650000000000 PUSH1 0x44 DUP3 ADD MSTORE PUSH1 0x64 ADD PUSH2 0x270 JUMP JUMPDEST PUSH2 0x4FA PUSH6 0x5AF3107A4000 DUP5 PUSH2 0xD02 JUMP JUMPDEST CALLVALUE EQ PUSH2 0x53F JUMPI PUSH1 0x40 MLOAD PUSH3 0x461BCD PUSH1 0xE5 SHL DUP2 MSTORE PUSH1 0x20 PUSH1 0x4 DUP3 ADD MSTORE PUSH1 0x14 PUSH1 0x24 DUP3 ADD MSTORE PUSH20 0x125B98DBDC9C9958DD08115D1A195C881CD95B9D PUSH1 0x62 SHL PUSH1 0x44 DUP3 ADD MSTORE PUSH1 0x64 ADD PUSH2 0x270 JUMP JUMPDEST DUP3 PUSH1 0x1 DUP6 PUSH1 0x40 MLOAD PUSH2 0x550 SWAP2 SWAP1 PUSH2 0xD43 JUMP JUMPDEST SWAP1 DUP2 MSTORE PUSH1 0x20 ADD PUSH1 0x40 MLOAD DUP1 SWAP2 SUB SWAP1 KECCAK256 PUSH1 0x0 DUP3 DUP3 SLOAD PUSH2 0x56D SWAP2 SWAP1 PUSH2 0xD5F JUMP JUMPDEST SWAP3 POP POP DUP2 SWAP1 SSTORE POP DUP3 PUSH1 0x2 PUSH1 0x0 DUP3 DUP3 SLOAD PUSH2 0x586 SWAP2 SWAP1 PUSH2 0xD72 JUMP JUMPDEST SWAP1 SWAP2 SSTORE POP POP PUSH1 0x40 MLOAD CALLER SWAP1 PUSH32 0x25748CFD0E365BE64DDC23A17740B66C3C84E41A3F32027F9EDBDDDE67CC6720 SWAP1 PUSH2 0x5BF SWAP1 DUP8 SWAP1 DUP8 SWAP1 PUSH2 0xDB1 JUMP JUMPDEST PUSH1 0x40 MLOAD DUP1 SWAP2 SUB SWAP1 LOG2 PUSH1 0x2 SLOAD PUSH1 0x1 DUP6 PUSH1 0x40 MLOAD PUSH2 0x5DA SWAP2 SWAP1 PUSH2 0xD43 JUMP JUMPDEST SWAP1 DUP2 MSTORE PUSH1 0x20 ADD PUSH1 0x40 MLOAD DUP1 SWAP2 SUB SWAP1 KECCAK256 SLOAD GT ISZERO PUSH2 0x64E JUMPI PUSH32 0xE3BCE398A9AAC96CD5FA58A84A64E78778A933DA88E263B0D46AF68281242D57 DUP5 PUSH1 0x1 DUP7 PUSH1 0x40 MLOAD PUSH2 0x621 SWAP2 SWAP1 PUSH2 0xD43 JUMP JUMPDEST SWAP1 DUP2 MSTORE PUSH1 0x40 MLOAD SWAP1 DUP2 SWAP1 SUB PUSH1 0x20 ADD DUP2 KECCAK256 SLOAD PUSH1 0x3 SLOAD PUSH2 0x63E SWAP4 SWAP3 PUSH2 0xDD3 JUMP JUMPDEST PUSH1 0x40 MLOAD DUP1 SWAP2 SUB SWAP1 LOG1 PUSH2 0x64E PUSH2 0xB07 JUMP JUMPDEST POP POP POP POP JUMP JUMPDEST DUP2 PUSH1 0x0 DUP2 SWAP1 POP PUSH1 0x18 DUP2 MLOAD GT ISZERO PUSH2 0x6A6 JUMPI PUSH1 0x40 MLOAD PUSH3 0x461BCD PUSH1 0xE5 SHL DUP2 MSTORE PUSH1 0x20 PUSH1 0x4 DUP3 ADD MSTORE PUSH1 0x17 PUSH1 0x24 DUP3 ADD MSTORE PUSH23 0x537562726564646974206E616D6520746F6F206C6F6E67 PUSH1 0x48 SHL PUSH1 0x44 DUP3 ADD MSTORE PUSH1 0x64 ADD PUSH2 0x270 JUMP JUMPDEST PUSH1 0x3 DUP2 MLOAD GT PUSH2 0x6F2 JUMPI PUSH1 0x40 MLOAD PUSH3 0x461BCD PUSH1 0xE5 SHL DUP2 MSTORE PUSH1 0x20 PUSH1 0x4 DUP3 ADD MSTORE PUSH1 0x18 PUSH1 0x24 DUP3 ADD MSTORE PUSH24 0x14DD589C9959191A5D081B985B59481D1BDBC81CDA1BDC9D PUSH1 0x42 SHL PUSH1 0x44 DUP3 ADD MSTORE PUSH1 0x64 ADD PUSH2 0x270 JUMP JUMPDEST DUP1 PUSH1 0x0 DUP2 MLOAD DUP2 LT PUSH2 0x705 JUMPI PUSH2 0x705 PUSH2 0xCD6 JUMP JUMPDEST PUSH1 0x20 SWAP2 ADD ADD MLOAD PUSH1 0x1 PUSH1 0x1 PUSH1 0xF8 SHL SUB NOT AND PUSH1 0x2F PUSH1 0xF8 SHL EQ DUP1 PUSH2 0x74B JUMPI POP DUP1 PUSH1 0x1 DUP2 MLOAD DUP2 LT PUSH2 0x734 JUMPI PUSH2 0x734 PUSH2 0xCD6 JUMP JUMPDEST PUSH1 0x20 SWAP2 ADD ADD MLOAD PUSH1 0x1 PUSH1 0x1 PUSH1 0xF8 SHL SUB NOT AND PUSH1 0x39 PUSH1 0xF9 SHL EQ JUMPDEST DUP1 PUSH2 0x77B JUMPI POP DUP1 PUSH1 0x2 DUP2 MLOAD DUP2 LT PUSH2 0x764 JUMPI PUSH2 0x764 PUSH2 0xCD6 JUMP JUMPDEST PUSH1 0x20 SWAP2 ADD ADD MLOAD PUSH1 0x1 PUSH1 0x1 PUSH1 0xF8 SHL SUB NOT AND PUSH1 0x2F PUSH1 0xF8 SHL EQ JUMPDEST PUSH2 0x7C7 JUMPI PUSH1 0x40 MLOAD PUSH3 0x461BCD PUSH1 0xE5 SHL DUP2 MSTORE PUSH1 0x20 PUSH1 0x4 DUP3 ADD MSTORE PUSH1 0x1F PUSH1 0x24 DUP3 ADD MSTORE PUSH32 0x537562726564646974206D757374207374617274207769746820272F722F2700 PUSH1 0x44 DUP3 ADD MSTORE PUSH1 0x64 ADD PUSH2 0x270 JUMP JUMPDEST PUSH2 0x7D0 DUP3 PUSH2 0xA94 JUMP JUMPDEST ISZERO PUSH2 0x81D JUMPI PUSH1 0x40 MLOAD PUSH3 0x461BCD PUSH1 0xE5 SHL DUP2 MSTORE PUSH1 0x20 PUSH1 0x4 DUP3 ADD MSTORE PUSH1 0x1B PUSH1 0x24 DUP3 ADD MSTORE PUSH32 0x537562726564646974206D757374206265206C6F776572636173650000000000 PUSH1 0x44 DUP3 ADD MSTORE PUSH1 0x64 ADD PUSH2 0x270 JUMP JUMPDEST PUSH2 0x82D PUSH6 0x5AF3107A4000 DUP5 PUSH2 0xD02 JUMP JUMPDEST CALLVALUE EQ PUSH2 0x872 JUMPI PUSH1 0x40 MLOAD PUSH3 0x461BCD PUSH1 0xE5 SHL DUP2 MSTORE PUSH1 0x20 PUSH1 0x4 DUP3 ADD MSTORE PUSH1 0x14 PUSH1 0x24 DUP3 ADD MSTORE PUSH20 0x125B98DBDC9C9958DD08115D1A195C881CD95B9D PUSH1 0x62 SHL PUSH1 0x44 DUP3 ADD MSTORE PUSH1 0x64 ADD PUSH2 0x270 JUMP JUMPDEST PUSH1 0x0 SLOAD PUSH2 0x87F SWAP1 DUP5 PUSH2 0xD02 JUMP JUMPDEST PUSH1 0x1 DUP6 PUSH1 0x40 MLOAD PUSH2 0x88F SWAP2 SWAP1 PUSH2 0xD43 JUMP JUMPDEST SWAP1 DUP2 MSTORE PUSH1 0x20 ADD PUSH1 0x40 MLOAD DUP1 SWAP2 SUB SWAP1 KECCAK256 SLOAD LT ISZERO PUSH2 0x8EC JUMPI PUSH1 0x40 MLOAD PUSH3 0x461BCD PUSH1 0xE5 SHL DUP2 MSTORE PUSH1 0x20 PUSH1 0x4 DUP3 ADD MSTORE PUSH1 0x19 PUSH1 0x24 DUP3 ADD MSTORE PUSH32 0x4E6F7420656E6F75676820746F6B656E7320746F206275726E00000000000000 PUSH1 0x44 DUP3 ADD MSTORE PUSH1 0x64 ADD PUSH2 0x270 JUMP JUMPDEST PUSH1 0x0 SLOAD PUSH2 0x8F9 SWAP1 DUP5 PUSH2 0xD02 JUMP JUMPDEST PUSH1 0x1 DUP6 PUSH1 0x40 MLOAD PUSH2 0x909 SWAP2 SWAP1 PUSH2 0xD43 JUMP JUMPDEST SWAP1 DUP2 MSTORE PUSH1 0x20 ADD PUSH1 0x40 MLOAD DUP1 SWAP2 SUB SWAP1 KECCAK256 PUSH1 0x0 DUP3 DUP3 SLOAD PUSH2 0x926 SWAP2 SWAP1 PUSH2 0xD72 JUMP JUMPDEST SWAP3 POP POP DUP2 SWAP1 SSTORE POP DUP3 PUSH1 0x2 PUSH1 0x0 DUP3 DUP3 SLOAD PUSH2 0x93F SWAP2 SWAP1 PUSH2 0xD72 JUMP JUMPDEST SWAP1 SWAP2 SSTORE POP POP PUSH1 0x40 MLOAD CALLER SWAP1 PUSH32 0x42553426C7163A6F0D19F7BD35B9C58878BE4BB3585577B73B46BBF4A90B93F6 SWAP1 PUSH2 0x978 SWAP1 DUP8 SWAP1 DUP8 SWAP1 PUSH2 0xDB1 JUMP JUMPDEST PUSH1 0x40 MLOAD DUP1 SWAP2 SUB SWAP1 LOG2 POP POP POP POP JUMP JUMPDEST CALLER PUSH1 0x1 PUSH1 0x1 PUSH1 0xA0 SHL SUB PUSH32 0x0 AND EQ PUSH2 0x9CE JUMPI PUSH1 0x40 MLOAD PUSH3 0x461BCD PUSH1 0xE5 SHL DUP2 MSTORE PUSH1 0x4 ADD PUSH2 0x270 SWAP1 PUSH2 0xC91 JUMP JUMPDEST PUSH1 0x0 DUP2 GT PUSH2 0xA28 JUMPI PUSH1 0x40 MLOAD PUSH3 0x461BCD PUSH1 0xE5 SHL DUP2 MSTORE PUSH1 0x20 PUSH1 0x4 DUP3 ADD MSTORE PUSH1 0x21 PUSH1 0x24 DUP3 ADD MSTORE PUSH32 0x4D756C7469706C696572206D7573742062652067726561746572207468616E20 PUSH1 0x44 DUP3 ADD MSTORE PUSH1 0x3 PUSH1 0xFC SHL PUSH1 0x64 DUP3 ADD MSTORE PUSH1 0x84 ADD PUSH2 0x270 JUMP JUMPDEST PUSH1 0x64 DUP2 GT ISZERO PUSH2 0xA8F JUMPI PUSH1 0x40 MLOAD PUSH3 0x461BCD PUSH1 0xE5 SHL DUP2 MSTORE PUSH1 0x20 PUSH1 0x4 DUP3 ADD MSTORE PUSH1 0x2D PUSH1 0x24 DUP3 ADD MSTORE PUSH32 0x4D756C7469706C696572206D757374206265206C657373207468616E20206F72 PUSH1 0x44 DUP3 ADD MSTORE PUSH13 0x20657175616C20746F2031306F PUSH1 0x98 SHL PUSH1 0x64 DUP3 ADD MSTORE PUSH1 0x84 ADD PUSH2 0x270 JUMP JUMPDEST PUSH1 0x0 SSTORE JUMP JUMPDEST PUSH1 0x0 DUP2 DUP2 JUMPDEST DUP2 MLOAD DUP2 LT ISZERO PUSH2 0xAFD JUMPI PUSH1 0x41 DUP3 DUP3 DUP2 MLOAD DUP2 LT PUSH2 0xAB6 JUMPI PUSH2 0xAB6 PUSH2 0xCD6 JUMP JUMPDEST ADD PUSH1 0x20 ADD MLOAD PUSH1 0xF8 SHR LT DUP1 ISZERO SWAP1 PUSH2 0xAE6 JUMPI POP PUSH1 0x5A DUP3 DUP3 DUP2 MLOAD DUP2 LT PUSH2 0xADB JUMPI PUSH2 0xADB PUSH2 0xCD6 JUMP JUMPDEST ADD PUSH1 0x20 ADD MLOAD PUSH1 0xF8 SHR GT ISZERO JUMPDEST ISZERO PUSH2 0xAF5 JUMPI POP PUSH1 0x1 SWAP4 SWAP3 POP POP POP JUMP JUMPDEST PUSH1 0x1 ADD PUSH2 0xA99 JUMP JUMPDEST POP PUSH1 0x0 SWAP4 SWAP3 POP POP POP JUMP JUMPDEST PUSH1 0x3 DUP1 SLOAD SWAP1 PUSH1 0x0 PUSH2 0xB17 DUP4 PUSH2 0xDF8 JUMP JUMPDEST SWAP1 SWAP2 SSTORE POP POP PUSH1 0x3 SLOAD PUSH2 0xB2C SWAP1 PUSH3 0xF4240 PUSH2 0xE11 JUMP JUMPDEST PUSH2 0xB39 SWAP1 PUSH3 0xF4240 PUSH2 0xD5F JUMP JUMPDEST PUSH1 0x2 PUSH1 0x0 DUP3 DUP3 SLOAD PUSH2 0xB4A SWAP2 SWAP1 PUSH2 0xD5F JUMP JUMPDEST SWAP1 SWAP2 SSTORE POP POP JUMP JUMPDEST PUSH4 0x4E487B71 PUSH1 0xE0 SHL PUSH1 0x0 MSTORE PUSH1 0x41 PUSH1 0x4 MSTORE PUSH1 0x24 PUSH1 0x0 REVERT JUMPDEST PUSH1 0x0 DUP3 PUSH1 0x1F DUP4 ADD SLT PUSH2 0xB78 JUMPI PUSH1 0x0 DUP1 REVERT JUMPDEST DUP2 CALLDATALOAD PUSH8 0xFFFFFFFFFFFFFFFF DUP2 GT ISZERO PUSH2 0xB92 JUMPI PUSH2 0xB92 PUSH2 0xB51 JUMP JUMPDEST PUSH1 0x40 MLOAD PUSH1 0x1F DUP3 ADD PUSH1 0x1F NOT SWAP1 DUP2 AND PUSH1 0x3F ADD AND DUP2 ADD PUSH8 0xFFFFFFFFFFFFFFFF DUP2 GT DUP3 DUP3 LT OR ISZERO PUSH2 0xBC1 JUMPI PUSH2 0xBC1 PUSH2 0xB51 JUMP JUMPDEST PUSH1 0x40 MSTORE DUP2 DUP2 MSTORE DUP4 DUP3 ADD PUSH1 0x20 ADD DUP6 LT ISZERO PUSH2 0xBD9 JUMPI PUSH1 0x0 DUP1 REVERT JUMPDEST DUP2 PUSH1 0x20 DUP6 ADD PUSH1 0x20 DUP4 ADD CALLDATACOPY PUSH1 0x0 SWAP2 DUP2 ADD PUSH1 0x20 ADD SWAP2 SWAP1 SWAP2 MSTORE SWAP4 SWAP3 POP POP POP JUMP JUMPDEST PUSH1 0x0 PUSH1 0x20 DUP3 DUP5 SUB SLT ISZERO PUSH2 0xC08 JUMPI PUSH1 0x0 DUP1 REVERT JUMPDEST DUP2 CALLDATALOAD PUSH8 0xFFFFFFFFFFFFFFFF DUP2 GT ISZERO PUSH2 0xC1F JUMPI PUSH1 0x0 DUP1 REVERT JUMPDEST PUSH2 0xC2B DUP5 DUP3 DUP6 ADD PUSH2 0xB67 JUMP JUMPDEST SWAP5 SWAP4 POP POP POP POP JUMP JUMPDEST PUSH1 0x0 DUP1 PUSH1 0x40 DUP4 DUP6 SUB SLT ISZERO PUSH2 0xC46 JUMPI PUSH1 0x0 DUP1 REVERT JUMPDEST DUP3 CALLDATALOAD PUSH8 0xFFFFFFFFFFFFFFFF DUP2 GT ISZERO PUSH2 0xC5D JUMPI PUSH1 0x0 DUP1 REVERT JUMPDEST PUSH2 0xC69 DUP6 DUP3 DUP7 ADD PUSH2 0xB67 JUMP JUMPDEST SWAP6 PUSH1 0x20 SWAP5 SWAP1 SWAP5 ADD CALLDATALOAD SWAP5 POP POP POP POP JUMP JUMPDEST PUSH1 0x0 PUSH1 0x20 DUP3 DUP5 SUB SLT ISZERO PUSH2 0xC8A JUMPI PUSH1 0x0 DUP1 REVERT JUMPDEST POP CALLDATALOAD SWAP2 SWAP1 POP JUMP JUMPDEST PUSH1 0x20 DUP1 DUP3 MSTORE PUSH1 0x25 SWAP1 DUP3 ADD MSTORE PUSH32 0x4F6E6C7920746865206F776E65722063616E2063616C6C20746869732066756E PUSH1 0x40 DUP3 ADD MSTORE PUSH5 0x31BA34B7B7 PUSH1 0xD9 SHL PUSH1 0x60 DUP3 ADD MSTORE PUSH1 0x80 ADD SWAP1 JUMP JUMPDEST PUSH4 0x4E487B71 PUSH1 0xE0 SHL PUSH1 0x0 MSTORE PUSH1 0x32 PUSH1 0x4 MSTORE PUSH1 0x24 PUSH1 0x0 REVERT JUMPDEST PUSH4 0x4E487B71 PUSH1 0xE0 SHL PUSH1 0x0 MSTORE PUSH1 0x11 PUSH1 0x4 MSTORE PUSH1 0x24 PUSH1 0x0 REVERT JUMPDEST DUP1 DUP3 MUL DUP2 ISZERO DUP3 DUP3 DIV DUP5 EQ OR PUSH2 0xD19 JUMPI PUSH2 0xD19 PUSH2 0xCEC JUMP JUMPDEST SWAP3 SWAP2 POP POP JUMP JUMPDEST PUSH1 0x0 JUMPDEST DUP4 DUP2 LT ISZERO PUSH2 0xD3A JUMPI DUP2 DUP2 ADD MLOAD DUP4 DUP3 ADD MSTORE PUSH1 0x20 ADD PUSH2 0xD22 JUMP JUMPDEST POP POP PUSH1 0x0 SWAP2 ADD MSTORE JUMP JUMPDEST PUSH1 0x0 DUP3 MLOAD PUSH2 0xD55 DUP2 DUP5 PUSH1 0x20 DUP8 ADD PUSH2 0xD1F JUMP JUMPDEST SWAP2 SWAP1 SWAP2 ADD SWAP3 SWAP2 POP POP JUMP JUMPDEST DUP1 DUP3 ADD DUP1 DUP3 GT ISZERO PUSH2 0xD19 JUMPI PUSH2 0xD19 PUSH2 0xCEC JUMP JUMPDEST DUP2 DUP2 SUB DUP2 DUP2 GT ISZERO PUSH2 0xD19 JUMPI PUSH2 0xD19 PUSH2 0xCEC JUMP JUMPDEST PUSH1 0x0 DUP2 MLOAD DUP1 DUP5 MSTORE PUSH2 0xD9D DUP2 PUSH1 0x20 DUP7 ADD PUSH1 0x20 DUP7 ADD PUSH2 0xD1F JUMP JUMPDEST PUSH1 0x1F ADD PUSH1 0x1F NOT AND SWAP3 SWAP1 SWAP3 ADD PUSH1 0x20 ADD SWAP3 SWAP2 POP POP JUMP JUMPDEST PUSH1 0x40 DUP2 MSTORE PUSH1 0x0 PUSH2 0xDC4 PUSH1 0x40 DUP4 ADD DUP6 PUSH2 0xD85 JUMP JUMPDEST SWAP1 POP DUP3 PUSH1 0x20 DUP4 ADD MSTORE SWAP4 SWAP3 POP POP POP JUMP JUMPDEST PUSH1 0x60 DUP2 MSTORE PUSH1 0x0 PUSH2 0xDE6 PUSH1 0x60 DUP4 ADD DUP7 PUSH2 0xD85 JUMP JUMPDEST PUSH1 0x20 DUP4 ADD SWAP5 SWAP1 SWAP5 MSTORE POP PUSH1 0x40 ADD MSTORE SWAP2 SWAP1 POP JUMP JUMPDEST PUSH1 0x0 PUSH1 0x1 DUP3 ADD PUSH2 0xE0A JUMPI PUSH2 0xE0A PUSH2 0xCEC JUMP JUMPDEST POP PUSH1 0x1 ADD SWAP1 JUMP JUMPDEST PUSH1 0x0 DUP3 PUSH2 0xE2E JUMPI PUSH4 0x4E487B71 PUSH1 0xE0 SHL PUSH1 0x0 MSTORE PUSH1 0x12 PUSH1 0x4 MSTORE PUSH1 0x24 PUSH1 0x0 REVERT JUMPDEST POP DIV SWAP1 JUMP INVALID LOG2 PUSH5 0x6970667358 0x22 SLT KECCAK256 PUSH3 0x1AFFEA CALLDATASIZE PUSH26 0xB1BA04F47925E2C325573CEBE252E1DBA477159BC42281E7A43A PUSH5 0x736F6C6343 STOP ADDMOD SHR STOP CALLER "
        },
        "methodIdentifiers": {
          "BURN_MULTIPLIER()": "80771ca2",
          "INITIAL_SUPPLY()": "2ff2e9dc",
          "MAX_SUBREDDIT_LENGTH()": "34207cb5",
          "TOKEN_PRICE()": "d2d8cb67",
          "burnTokens(string,uint256)": "d5290a2e",
          "currentSeason()": "bcb39621",
          "owner()": "8da5cb5b",
          "purchaseTokens(string,uint256)": "84cd1664",
          "setBurnMultiplier(uint256)": "f5bf395f",
          "subredditTokenBalances(string)": "157c797f",
          "voidTokenCount()": "4937d972",
          "withdraw()": "3ccfd60b"
        }
      }
    }
  }
}