{
  "_format": "hh-sol-artifact-1",
  "contractName": "SubredditBattleRoyale",
  "sourceName": "contracts/SubredditBattleRoyale.sol",
  "abi": [
    {
      "inputs": [],
      "stateMutability": "nonpayable",
      "type": "constructor"
    },
    {
      "anonymous": false,
      "inputs": [
        {
          "indexed": false,
          "internalType": "string",
          "name": "subreddit",
          "type": "string"
        },
        {
          "indexed": false,
          "internalType": "uint256",
          "name": "tokens",
          "type": "uint256"
        },
        {
          "indexed": false,
          "internalType": "uint256",
          "name": "season",
          "type": "uint256"
        }
      ],
      "name": "SeasonWon",
      "type": "event"
    },
    {
      "anonymous": false,
      "inputs": [
        {
          "indexed": true,
          "internalType": "address",
          "name": "buyer",
          "type": "address"
        },
        {
          "indexed": false,
          "internalType": "string",
          "name": "subreddit",
          "type": "string"
        },
        {
          "indexed": false,
          "internalType": "uint256",
          "name": "amount",
          "type": "uint256"
        }
      ],
      "name": "TokensBurned",
      "type": "event"
    },
    {
      "anonymous": false,
      "inputs": [
        {
          "indexed": true,
          "internalType": "address",
          "name": "buyer",
          "type": "address"
        },
        {
          "indexed": false,
          "internalType": "string",
          "name": "subreddit",
          "type": "string"
        },
        {
          "indexed": false,
          "internalType": "uint256",
          "name": "amount",
          "type": "uint256"
        }
      ],
      "name": "TokensPurchased",
      "type": "event"
    },
    {
      "inputs": [],
      "name": "BURN_MULTIPLIER",
      "outputs": [
        {
          "internalType": "uint256",
          "name": "",
          "type": "uint256"
        }
      ],
      "stateMutability": "view",
      "type": "function"
    },
    {
      "inputs": [],
      "name": "INITIAL_SUPPLY",
      "outputs": [
        {
          "internalType": "uint256",
          "name": "",
          "type": "uint256"
        }
      ],
      "stateMutability": "view",
      "type": "function"
    },
    {
      "inputs": [],
      "name": "MAX_SUBREDDIT_LENGTH",
      "outputs": [
        {
          "internalType": "uint256",
          "name": "",
          "type": "uint256"
        }
      ],
      "stateMutability": "view",
      "type": "function"
    },
    {
      "inputs": [],
      "name": "TOKEN_PRICE",
      "outputs": [
        {
          "internalType": "uint256",
          "name": "",
          "type": "uint256"
        }
      ],
      "stateMutability": "view",
      "type": "function"
    },
    {
      "inputs": [
        {
          "internalType": "string",
          "name": "subreddit",
          "type": "string"
        },
        {
          "internalType": "uint256",
          "name": "amount",
          "type": "uint256"
        }
      ],
      "name": "burnTokens",
      "outputs": [],
      "stateMutability": "payable",
      "type": "function"
    },
    {
      "inputs": [],
      "name": "currentSeason",
      "outputs": [
        {
          "internalType": "uint256",
          "name": "",
          "type": "uint256"
        }
      ],
      "stateMutability": "view",
      "type": "function"
    },
    {
      "inputs": [],
      "name": "owner",
      "outputs": [
        {
          "internalType": "address",
          "name": "",
          "type": "address"
        }
      ],
      "stateMutability": "view",
      "type": "function"
    },
    {
      "inputs": [
        {
          "internalType": "string",
          "name": "subreddit",
          "type": "string"
        },
        {
          "internalType": "uint256",
          "name": "amount",
          "type": "uint256"
        }
      ],
      "name": "purchaseTokens",
      "outputs": [],
      "stateMutability": "payable",
      "type": "function"
    },
    {
      "inputs": [
        {
          "internalType": "uint256",
          "name": "newMultiplier",
          "type": "uint256"
        }
      ],
      "name": "setBurnMultiplier",
      "outputs": [],
      "stateMutability": "nonpayable",
      "type": "function"
    },
    {
      "inputs": [
        {
          "internalType": "string",
          "name": "",
          "type": "string"
        }
      ],
      "name": "subredditTokenBalances",
      "outputs": [
        {
          "internalType": "uint256",
          "name": "",
          "type": "uint256"
        }
      ],
      "stateMutability": "view",
      "type": "function"
    },
    {
      "inputs": [],
      "name": "voidTokenCount",
      "outputs": [
        {
          "internalType": "uint256",
          "name": "",
          "type": "uint256"
        }
      ],
      "stateMutability": "view",
      "type": "function"
    },
    {
      "inputs": [],
      "name": "withdraw",
      "outputs": [],
      "stateMutability": "nonpayable",
      "type": "function"
    }
  ],
  "bytecode": "0x60a06040526003600055600160035534801561001a57600080fd5b50620f42406002553360805261002e610033565b610537565b60408051808201909152600b81526a2f722f657468657265756d60a81b6020820152610061906102406103ee565b6040805180820190915260098152682f722f736f6c616e6160b81b602082015261008d9061040c6103ee565b60408051808201909152600a81526917b917b134ba31b7b4b760b11b60208201526100ba906101496103ee565b60408051808201909152600b81526a17b917b237b3b2b1b7b4b760a91b60208201526100e89061012a6103ee565b60408051808201909152600781526617b917b9b434b160c91b60208201526101119060cf6103ee565b60408051808201909152600e81526d2f722f6c69766572706f6f6c666360901b6020820152610142906103aa6103ee565b6040805180820190915260078152662f722f6d63666360c81b602082015261016c906103596103ee565b60408051808201909152600c81526b2f722f6368656c736561666360a01b602082015261019b906103916103ee565b60408051808201909152600881526717b917b237ba309960c11b60208201526101c69061052e6103ee565b6040805180820190915260128152712f722f6c65616775656f666c6567656e647360701b60208201526101fb906104446103ee565b6040805180820190915260128152712f722f676c6f62616c6f6666656e7369766560701b6020820152610230906101836103ee565b60408051808201909152600e81526d2f722f706174686f666578696c6560901b6020820152610261906103e56103ee565b60408051808201909152600a8152690bdc8bd91a58589b1bcd60b21b602082015261028e9061017a6103ee565b6040805180820190915260078152660bdc8bdc9d5cdd60ca1b60208201526102b8906107ed6103ee565b60408051808201909152600981526802f722f6373686172760bc1b60208201526102e49061050a6103ee565b60408051808201909152600981526817b917b83cba3437b760b91b602082015261031090610ef56103ee565b60408051808201909152600681526502f722f6370760d41b6020820152610339906104036103ee565b6040805180820190915260078152662f722f6a61766160c81b6020820152610363906106be6103ee565b60408051808201909152600b81526a2f722f736f6c696469747960a81b602082015261039090601b6103ee565b60408051808201909152600d81526c0bdc8bda985d985cd8dc9a5c1d609a1b60208201526103c090610ffd6103ee565b6040805180820190915260098152682f722f676f6c616e6760b81b60208201526103ec9061033b6103ee565b565b806001836040516103ff919061049e565b9081526020016040518091039020600082825461041c91906104d0565b92505081905550806002600082825461043591906104e9565b909155505060405133907f25748cfd0e365be64ddc23a17740b66c3c84e41a3f32027f9edbddde67cc67209061046e90859085906104fc565b60405180910390a25050565b60005b8381101561049557818101518382015260200161047d565b50506000910152565b600082516104b081846020870161047a565b9190910192915050565b634e487b7160e01b600052601160045260246000fd5b808201808211156104e3576104e36104ba565b92915050565b818103818111156104e3576104e36104ba565b604081526000835180604084015261051b81606085016020880161047a565b602083019390935250601f91909101601f191601606001919050565b608051610e696105676000396000818161018b01528181610233015281816102d601526109910152610e696000f3fe6080604052600436106100a75760003560e01c806384cd16641161006457806384cd1664146101665780638da5cb5b14610179578063bcb39621146101c5578063d2d8cb67146101db578063d5290a2e146101f5578063f5bf395f1461020857600080fd5b8063157c797f146100ac5780632ff2e9dc146100f757806334207cb51461010e5780633ccfd60b146101235780634937d9721461013a57806380771ca214610150575b600080fd5b3480156100b857600080fd5b506100e46100c7366004610bf6565b805160208183018101805160018252928201919093012091525481565b6040519081526020015b60405180910390f35b34801561010357600080fd5b506100e4620f424081565b34801561011a57600080fd5b506100e4601881565b34801561012f57600080fd5b50610138610228565b005b34801561014657600080fd5b506100e460025481565b34801561015c57600080fd5b506100e460005481565b610138610174366004610c33565b610321565b34801561018557600080fd5b506101ad7f000000000000000000000000000000000000000000000000000000000000000081565b6040516001600160a01b0390911681526020016100ee565b3480156101d157600080fd5b506100e460035481565b3480156101e757600080fd5b506100e4655af3107a400081565b610138610203366004610c33565b610654565b34801561021457600080fd5b50610138610223366004610c78565b610986565b336001600160a01b037f000000000000000000000000000000000000000000000000000000000000000016146102795760405162461bcd60e51b815260040161027090610c91565b60405180910390fd5b600047116102c95760405162461bcd60e51b815260206004820152601e60248201527f4e6f20457468657220617661696c61626c6520746f20776974686472617700006044820152606401610270565b6040516001600160a01b037f000000000000000000000000000000000000000000000000000000000000000016904780156108fc02916000818181858888f1935050505015801561031e573d6000803e3d6000fd5b50565b8160008190506018815111156103735760405162461bcd60e51b8152602060048201526017602482015276537562726564646974206e616d6520746f6f206c6f6e6760481b6044820152606401610270565b60038151116103bf5760405162461bcd60e51b815260206004820152601860248201527714dd589c9959191a5d081b985b59481d1bdbc81cda1bdc9d60421b6044820152606401610270565b806000815181106103d2576103d2610cd6565b6020910101516001600160f81b031916602f60f81b148061041857508060018151811061040157610401610cd6565b6020910101516001600160f81b031916603960f91b145b8061044857508060028151811061043157610431610cd6565b6020910101516001600160f81b031916602f60f81b145b6104945760405162461bcd60e51b815260206004820152601f60248201527f537562726564646974206d757374207374617274207769746820272f722f27006044820152606401610270565b61049d82610a94565b156104ea5760405162461bcd60e51b815260206004820152601b60248201527f537562726564646974206d757374206265206c6f7765726361736500000000006044820152606401610270565b6104fa655af3107a400084610d02565b341461053f5760405162461bcd60e51b8152602060048201526014602482015273125b98dbdc9c9958dd08115d1a195c881cd95b9d60621b6044820152606401610270565b826001856040516105509190610d43565b9081526020016040518091039020600082825461056d9190610d5f565b9250508190555082600260008282546105869190610d72565b909155505060405133907f25748cfd0e365be64ddc23a17740b66c3c84e41a3f32027f9edbddde67cc6720906105bf9087908790610db1565b60405180910390a26002546001856040516105da9190610d43565b908152602001604051809103902054111561064e577fe3bce398a9aac96cd5fa58a84a64e78778a933da88e263b0d46af68281242d57846001866040516106219190610d43565b9081526040519081900360200181205460035461063e9392610dd3565b60405180910390a161064e610b07565b50505050565b8160008190506018815111156106a65760405162461bcd60e51b8152602060048201526017602482015276537562726564646974206e616d6520746f6f206c6f6e6760481b6044820152606401610270565b60038151116106f25760405162461bcd60e51b815260206004820152601860248201527714dd589c9959191a5d081b985b59481d1bdbc81cda1bdc9d60421b6044820152606401610270565b8060008151811061070557610705610cd6565b6020910101516001600160f81b031916602f60f81b148061074b57508060018151811061073457610734610cd6565b6020910101516001600160f81b031916603960f91b145b8061077b57508060028151811061076457610764610cd6565b6020910101516001600160f81b031916602f60f81b145b6107c75760405162461bcd60e51b815260206004820152601f60248201527f537562726564646974206d757374207374617274207769746820272f722f27006044820152606401610270565b6107d082610a94565b1561081d5760405162461bcd60e51b815260206004820152601b60248201527f537562726564646974206d757374206265206c6f7765726361736500000000006044820152606401610270565b61082d655af3107a400084610d02565b34146108725760405162461bcd60e51b8152602060048201526014602482015273125b98dbdc9c9958dd08115d1a195c881cd95b9d60621b6044820152606401610270565b60005461087f9084610d02565b60018560405161088f9190610d43565b90815260200160405180910390205410156108ec5760405162461bcd60e51b815260206004820152601960248201527f4e6f7420656e6f75676820746f6b656e7320746f206275726e000000000000006044820152606401610270565b6000546108f99084610d02565b6001856040516109099190610d43565b908152602001604051809103902060008282546109269190610d72565b92505081905550826002600082825461093f9190610d72565b909155505060405133907f42553426c7163a6f0d19f7bd35b9c58878be4bb3585577b73b46bbf4a90b93f6906109789087908790610db1565b60405180910390a250505050565b336001600160a01b037f000000000000000000000000000000000000000000000000000000000000000016146109ce5760405162461bcd60e51b815260040161027090610c91565b60008111610a285760405162461bcd60e51b815260206004820152602160248201527f4d756c7469706c696572206d7573742062652067726561746572207468616e206044820152600360fc1b6064820152608401610270565b6064811115610a8f5760405162461bcd60e51b815260206004820152602d60248201527f4d756c7469706c696572206d757374206265206c657373207468616e20206f7260448201526c20657175616c20746f2031306f60981b6064820152608401610270565b600055565b600081815b8151811015610afd576041828281518110610ab657610ab6610cd6565b016020015160f81c10801590610ae65750605a828281518110610adb57610adb610cd6565b016020015160f81c11155b15610af5575060019392505050565b600101610a99565b5060009392505050565b60038054906000610b1783610df8565b9091555050600354610b2c90620f4240610e11565b610b3990620f4240610d5f565b60026000828254610b4a9190610d5f565b9091555050565b634e487b7160e01b600052604160045260246000fd5b600082601f830112610b7857600080fd5b813567ffffffffffffffff811115610b9257610b92610b51565b604051601f8201601f19908116603f0116810167ffffffffffffffff81118282101715610bc157610bc1610b51565b604052818152838201602001851015610bd957600080fd5b816020850160208301376000918101602001919091529392505050565b600060208284031215610c0857600080fd5b813567ffffffffffffffff811115610c1f57600080fd5b610c2b84828501610b67565b949350505050565b60008060408385031215610c4657600080fd5b823567ffffffffffffffff811115610c5d57600080fd5b610c6985828601610b67565b95602094909401359450505050565b600060208284031215610c8a57600080fd5b5035919050565b60208082526025908201527f4f6e6c7920746865206f776e65722063616e2063616c6c20746869732066756e60408201526431ba34b7b760d91b606082015260800190565b634e487b7160e01b600052603260045260246000fd5b634e487b7160e01b600052601160045260246000fd5b8082028115828204841417610d1957610d19610cec565b92915050565b60005b83811015610d3a578181015183820152602001610d22565b50506000910152565b60008251610d55818460208701610d1f565b9190910192915050565b80820180821115610d1957610d19610cec565b81810381811115610d1957610d19610cec565b60008151808452610d9d816020860160208601610d1f565b601f01601f19169290920160200192915050565b604081526000610dc46040830185610d85565b90508260208301529392505050565b606081526000610de66060830186610d85565b60208301949094525060400152919050565b600060018201610e0a57610e0a610cec565b5060010190565b600082610e2e57634e487b7160e01b600052601260045260246000fd5b50049056fea2646970667358221220621affea3679b1ba04f47925e2c325573cebe252e1dba477159bc42281e7a43a64736f6c634300081c0033",
  "linkReferences": {},
  "deployedLinkReferences": {}
}